:100000000C9495010C94C6010C94C6010C94C60185
:100010000C94C6010C94C6010C94C6010C94C60144
:100020000C94C6010C94C6010C94C6010C94C60134
:100030000C94C6010C94C6010C94C6010C94C60124
:100040000C94C6010C94C6010C94C6010C94C60114
:100050000C94C6010C94C6010C94C6010C94910C2E
:100060000C94C6010C94FF0F0C9435100C94C6012F
:100070000C94C6010C94C6010C94C6010C94C601E4
:100080000C94C6010C94C6010C94C6010C94C601D4
:100090000C94AC100C94E2100C94C6010C94C601A4
:1000A0000C94C6010C94C6010C94C6010C94C601B4
:1000B0000C94C6010C94C6010C94C6010C94C601A4
:1000C0000C94C6010C94C6010C94C6010C94C60194
:1000D0000C94C6010C94C6010C94C6010C94C60184
:1000E0000C94C601DB04E204E904F004F7040E05F5
:1000F000FE040E0505057E05820586058A058E052A
:1001000092059605B80DBB0DAA0DAE0DB40DF20DFE
:10011000BF0DC30DC90DCD0DD10DD70DDB0DDF0DFD
:10012000F20DE50DE90DED0D0C947E050C948B0E92
:100130000C948E050C94E50D0C94E9040C94F20DCE
:100140000C941A060C94F0040C9430060C940E05D2
:100150000C94AE0D0C9467050C9451060C94E90DAB
:100160000C94BB0D0C9496050C949C050C94E20425
:100170000C94960E0C94E0050C94C90D0C94BF06DB
:100180000C94ED0D0C9411050C9485060C946911DA
:100190000C9486050C94D10D0C94CD0D0C948A050D
:1001A0000C9492050C94F7040C94AA0D0C94160F61
:1001B0000C94B40D0C94380F0C9416110C94270366
:1001C0000C94B80D0C9482050C94C30D0C9469101A
:1001D0000C94A40E0C94CD040C94FE040C94050510
:1001E0000C945F100C94A6060C94BF0D0C94B80EE2
:1001F0000C94DF0D0C94DB0D0C94DB040C94D70DE8
:100200000C940C1100000A0B02090C0D0E080703D8
:1002100004010000000000000000000000000000D9
:1002200000000000000000000000000000000000CE
:10023000121110000000000000000000000000008B
:100240000000000000000000000001021020200853
:100250000810204010204080020102010804020121
:100260000102040810204080804020100804020190
:1002700080040201804020100804020108040201E9
:100280000102040810204080010204081020408070
:1002900005050505070508080808020202020A0A02
:1002A0000808040404040101010101010101030320
:1002B000030303030303040707070C0C0C0C0C0CCB
:1002C0000C0C0202020206060606060606060B0BC8
:1002D0000B0B0B0B0B0B000020002300260029004A
:1002E0002C002F003200000100000301060109016B
:1002F00000002200250028002B002E0031003400D1
:1003000002010000050108010B010000210024008A
:1003100027002A002D0030003300010100000401F5
:1003200007010A0127036910161111241FBECFEF20
:10033000D1E2DEBFCDBF00E00CBF14E0A0E0B2E030
:10034000E6EDFBE200E00BBF02C007900D92AE3578
:10035000B107D9F726E0AEE5B4E001C01D92A034A4
:10036000B207E1F713E0CAE2D3E000E006C022974B
:100370000109FE010BBF0E949415C432D10780E031
:100380000807A9F70E945A110C94E9150C94000073
:10039000CF93DF93CDB7DEB764970FB6F894DEBF87
:1003A0000FBECDBF68EE73E080E090E00E940A0DC2
:1003B00026E040E855E260E070E086E095E00E94CB
:1003C0009D0F86E0C82E85E0D82E9AE1E92EF12C0B
:1003D00009E110E020E030E048E453E460E674E036
:1003E000CE0101960E949504CE0101960E94E00381
:1003F000FBCFCF93DF9300D01F921F92CDB7DEB714
:1004000049835A836B837C8389819A8181309105EA
:100410002CF08830910554F0089711F081E007C066
:1004200081E02B813C812936314008F480E00F9037
:100430000F900F900F900F90DF91CF910895EF9252
:10044000FF920F931F93CF93DF93CDB7DEB72B9718
:100450000FB6F894DEBF0FBECDBF64E672E00E9417
:10046000B6159A83898364E672E080E090E00E948A
:10047000B6159C838B8364E672E080E090E00E9476
:10048000B6158C0189819A810E949815F82EE92E63
:100490008B819C81009729F00E949815482F892F05
:1004A00002C040E080E061E0F8019081943509F0FD
:1004B00060E0FF82E88649878A872F2D3E2D582FDE
:1004C00070E080E090E02B960FB6F894DEBF0FBE90
:1004D000CDBFDF91CF911F910F91FF90EF900895C5
:1004E0008EEC94E00E94A3039093AD048093AC043F
:1004F000181619060CF0A5C067E672E086E095E0D4
:100500000E94B41160EA72E086E095E00E94B411A6
:1005100080E2EEEAF4E0DF011D928A95E9F740916E
:10052000AC045091AD04BF018EEC94E00E949003A6
:100530009093AB048093AA046AEC72E086E095E0A5
:100540000E94A7116091AC047091AD044AE050E0A4
:1005500086E095E00E9469126EED72E086E095E01B
:100560000E94A7116EEA74E086E095E00E94A71150
:100570006AEE72E086E095E00E94A7116091AA04FD
:100580007091AB044AE050E086E095E00E94711261
:1005900069EF72E086E095E00E94B41141E020919D
:1005A000AC043091AD048091AA049091AB0428175B
:1005B000390709F440E04093A40441111DC063E3EE
:1005C00073E086E095E00E94B4118EEA94E00E9408
:1005D0001F02942F752F862F2093A5043093A60415
:1005E0004093A7045093A8046093A904A901692F1C
:1005F0000E94F9018093A4046BE673E086E095E025
:100600000E94B4118091A404882349F060EA73E049
:1006100086E095E00E94B41162EC73E008C06AECD9
:1006200073E086E095E00E94B4116EEE73E08EEC0C
:1006300094E00E94940367E672E086E095E00E94F1
:10064000B41164E670E080E090E00C940A0DCF9263
:10065000EF920F931F9300E815E228E130E047E1A5
:1006600050E066E170E08EEC94E00E944803CC24F8
:10067000C39425E0E22E04E027E044E061E080E658
:1006800094E00E9478091F910F91EF90CF90089508
:10069000AF92BF92CF92DF92EF92FF920F931F9390
:1006A000CF93DF931F921F92CDB7DEB75C01D62E9A
:1006B000E42EC52EF22EFC01108660E08D2D3A83CB
:1006C00079830E94F30D62E08E2D0E94F30D61E0AC
:1006D0008F2D0E94F30DF501D08279817183E28222
:1006E000C382F4823A81358317830683A801662783
:1006F00057FD6095762F26E083EA95E00E949D0FD6
:1007000081E0F50180870F900F90DF91CF911F91CD
:100710000F91FF90EF90DF90CF90BF90AF90089532
:1007200083EA95E00C94B712CF93DF9383EA95E0C8
:100730000E94B411EC0183EA95E00E94160FCE01ED
:10074000DF91CF910895FC018085882321F083EA11
:1007500095E00C948B0E8FEF9FEF0895CF92DF9270
:10076000EF92FF92CF93DF93EC01888999890E94E1
:10077000EB08488559856A857B85888999890E9417
:10078000490A888999890E94C80A888999890E949A
:100790005B076B017C01888999890E946107C616F5
:1007A000D706E806F90629F0888999890E94F20699
:1007B000ECCFDF91CF91FF90EF90DF90CF90089535
:1007C000CF93DF93EC0140E352E060E070E00E94E1
:1007D000AE0360ED77E080E090E00E940A0D48E112
:1007E00051E060E070E0CE010E94AE0360ED77E082
:1007F00080E090E00E940A0D4CE850E060E070E07C
:10080000CE010E94AE0360ED77E080E090E00E94B0
:100810000A0D44EA51E060E070E0CE010E94AE03B0
:1008200060ED77E080E090E00E940A0D40E050E04B
:10083000BA01CE010E94AE0360ED77E080E090E067
:10084000DF91CF910C940A0DCF93DF93EC0166EF0B
:1008500073E08A899B890E94B41140E050E068E40B
:1008600072E4888999890E94490A8A810E94620EED
:10087000892B29F4888999890E94F206F6CF88810C
:100880000E94620E892B89F71C861D861E861F8694
:1008900040E050E0BA01888999890E9467076DE0BD
:1008A00074E08A899B89DF91CF910C94B411FF92F7
:1008B0000F931F93CF93DF93042F112707FD1095FC
:1008C000C62FDD27C7FDD0959801AE0162E670E026
:1008D00089ED94E00E948F0CF82E62E070E080E0D9
:1008E00090E00E940A0DF110EFCFDF91CF911F91A0
:1008F0000F91FF900895CF93DF93EC0189ED94E081
:100900000E94EB0A64E670E080E090E00E940A0D2D
:1009100062E370E089ED94E00E94FC0A40E060E050
:10092000CE01DF91CF910C945704CF92DF92EF92DA
:10093000FF920F931F93CF93DF93EC01CB01BA018A
:10094000A901DB8ACA8A998B888B488759876A876D
:100950007B870E94E40908831983FB82EA8262E0B4
:10096000802F0E94F30D62E08A810E94F30D61E006
:1009700088E00E94F30D60E088E00E942C0ECE011A
:100980000E942404CE01DF91CF911F910F91FF901F
:10099000EF90DF90CF900C947B040F931F93DC01BA
:1009A00012960C9110E009301105C0F5F801EE58CF
:1009B000FF4F0C948E15DC01ED91FC910084F185C4
:1009C000E02D29C0DC01ED91FC910284F385E02D3E
:1009D00022C0DC01ED91FC910484F585E02D1BC063
:1009E000DC01ED91FC910684F785E02D14C0DC015B
:1009F000ED91FC910088F189E02D0DC0DC01ED91B5
:100A0000FC910288F389E02D06C0DC01ED91FC9198
:100A10000488F589E02D1F910F9119941F910F9172
:100A20000895CF93DF93EC01CB01BA0126E030E0CB
:100A300040E050E00E946F1562307105810591051C
:100A400059F18CF46115710581059105F1F0613062
:100A5000710581059105C1F5E881F9810480F58171
:100A6000E02D65E02DC0643071058105910511F11F
:100A7000D4F0653071058105910531F5E881F98182
:100A80000480F581E02D66E01BC0E881F9810480D7
:100A9000F581E02D64E014C0E881F9810480F581DE
:100AA000E02D61E00DC0E881F9810480F581E02D41
:100AB00063E006C0E881F9810480F581E02D62E001
:100AC000CE01DF91CF911994DF91CF910895CF930B
:100AD000DF93477055276627772741505109DC017E
:100AE000CD91DC914730510528F445585F4FFA010C
:100AF0000C948E15EC81FD8161E01BC0EC81FD81C1
:100B000065E017C0EC81FD8164E013C0EC81FD81DC
:100B100066E00FC0EC81FD8162E00BC0EC81FD81DD
:100B20006AE007C0EC81FD8168E003C0EC81FD81D3
:100B300069E0DF91CF911994AF92BF92DF92EF926B
:100B4000FF920F931F93CF93DF931F92CDB7DEB722
:100B50008C01FC018281843041F0883031F0833097
:100B600031F0863021F022E003C024E001C023E010
:100B7000A12CB12CE62EF12CDD24D394F801EA0D42
:100B8000FB1DC7010A2C02C0959587950A94E2F7D0
:100B9000678180FD6D25838129830E942C0EFFEFE4
:100BA000AF1ABF0A2981A21648F30F90DF91CF91A7
:100BB0001F910F91FF90EF90DF90BF90AF9008953D
:100BC0000F931F93CF93DF93EC01E881F9810480A9
:100BD000F581E02D8C010D5B1F4FD8018C9188238E
:100BE00011F062E001C060E0CE011995E881F98161
:100BF0000480F581E02DD8018C91882311F063E009
:100C000001C061E0CE0119958BA59CA50E94320D13
:100C1000E881F9810480F581E02DD8018C91882349
:100C200011F062E001C060E0CE01DF91CF911F9131
:100C30000F911994CF93DF93EC0120E030E0A901EC
:100C40006B897C898D899E890E948F1418161CF4EB
:100C5000EFA5F8A902C0E9A9FAA9DF91CF911994EB
:100C60004370552766277727DC01ED91FC910480BE
:100C7000F581E02D423051056105710571F0433079
:100C800051056105710559F0413051056105710546
:100C900011F062E005C063E003C061E001C060E004
:100CA0001994CF93DF93EC01CB01BA0123E030E03C
:100CB00040E050E00E946F1561307105810591059B
:100CC00081F0623071058105910591F0672B682BE9
:100CD000692BC1F4E881F9810480F581E02D64E09D
:100CE0000DC0E881F9810480F581E02D61E006C046
:100CF000E881F9810480F581E02D62E0CE01DF9189
:100D0000CF911994DF91CF910895437055276627AD
:100D10007727DC01ED91FC910480F581E02D4230D4
:100D200051056105710571F043305105610571058B
:100D300059F0413051056105710511F065E005C0BC
:100D400066E003C06AE001C069E01994CF93DF93C5
:100D5000EC018A81882381F0E881F9810480F581A2
:100D6000E02D60E0CE0119958EA58F3F29F06DA58D
:100D7000DF91CF910C942C0EDF91CF910895CF93FA
:100D8000DF93EC018A81882351F161E08B810E941D
:100D9000F30D61E08C810E94F30D8A81843011F0A3
:100DA000883039F461E08D810E94F30D61E08E811D
:100DB00006C0833011F0863021F461E08D810E94FD
:100DC000F30D8EA58F3F59F061E00E94F30D6DA5E4
:100DD00081E068278EA5DF91CF910C942C0EDF91D6
:100DE000CF910895CF92DF92EF92FF920F931F93CE
:100DF000CF93DF93EC014BA15CA16DA17EA1452BAC
:100E0000462B472B09F44DC00E94E70C6B017C0177
:100E10000FA118A529A53AA54BA15CA16DA17EA1A2
:100E2000400F511F621F731F40175107620773075E
:100E300030F0C416D506E606F70658F405C0C41609
:100E4000D506E606F70668F1C016D106E206F306F7
:100E500040F5FE01ED5BFF4F80814B855C856D8524
:100E60007E85882329F04F5F5F4F6F4F7F4F04C00F
:100E700041505109610971094B875C876D877E87F5
:100E8000E881F9814B855C856D857E850680F781DB
:100E9000E02DCE011995CFA2D8A6E9A6FAA681E049
:100EA00001C080E0DF91CF911F910F91FF90EF90F3
:100EB000DF90CF900895FC016785708981899289C0
:100EC0000895FC0163857485858596850895FC01E8
:100ED00043875487658776874787508B618B728BF2
:100EE00013AA14AA15AA16AA13A214A215A216A22E
:100EF00008952F923F924F925F926F927F928F92BE
:100F00009F92AF92BF92CF92DF92EF92FF920F9398
:100F10001F93CF93DF9300D01F92CDB7DEB71C0194
:100F2000FC0187849088A188B28883859485A585F3
:100F3000B685881A990AAA0ABB0A638974898589C1
:100F400096899B01AC010E9493146B017C01F10115
:100F5000638D748D858D968D9B01AC010E94DC1292
:100F60009B01AC01C701B6010E9444130E94AC135F
:100F700081149104A104B104A1F4623071058105CA
:100F800091050CF07CC0F10113A214A215A216A2C7
:100F9000138A148A158A168A13AA14AA15AA16AADD
:100FA00003C1F10103A914A925A936A9ED5BFF4FDF
:100FB000181419041A041B04FCF410161106120666
:100FC00013064CF4681579058A059B054CF52081BC
:100FD000211155C025C0011511052105310509F460
:100FE0004EC0681579058A059B050CF048C08081C4
:100FF000882309F444C037C01016110612061306E0
:10100000F4F4002711279801081919092A093B0946
:1010100060177107820793071CF42081222379F15E
:101020009B01AC0188279927DC01821B930BA40B41
:10103000B50BF10183AB94ABA5ABB6AB20C00115EA
:10104000110521053105D9F0CC24DD247601C8181D
:10105000D908EA08FB086C157D058E059F057CF410
:10106000808181110CC030952095109501951F4FFE
:101070002F4F3F4FF10103AB14AB25AB36ABF10162
:10108000C3A8D4A8E5A8F6A881010D5B1F4FC11421
:10109000D104E104F10491F487A990ADA1ADB2AD02
:1010A00083AF94AFA5AFB6AF81E0181419041A044A
:1010B0001B040CF080E0F801808340C0F10183AC98
:1010C00094ACA5ACB6ACA5019401C501B4010E94D5
:1010D000DC122B013C01C701B6010E94DF1320E0A6
:1010E00030E040E850E40E94931420E030E040E813
:1010F0005FE30E94DC129B01AC01C301B2010E94BC
:1011000044139B01AC01C501B4010E94DB122B0109
:101110003C01F101FF9680809180A280B380940110
:10112000A5010E948F14181614F442015301C40142
:10113000D501F10183AF94AFA5AFB6AFFFEFCF1AE2
:10114000DF0AEF0AFF0AF101C3AAD4AAE5AAF6AAA8
:1011500023AD34AD45AD56ADCA01B90129833A83FB
:101160004B835C830E94B113F10163A374A385A335
:1011700096A329813A814B815C8160E074E284E727
:1011800099E40E944413F101638B748B858B968BD9
:10119000F8012081211108C0DC01CB01B058F10118
:1011A000838B948BA58BB68B0F900F900F900F9025
:1011B000DF91CF911F910F91FF90EF90DF90CF9033
:1011C000BF90AF909F908F907F906F905F904F9067
:1011D0003F902F9008950F931F93FC01078510896E
:1011E00021893289041715072607370741F04787F9
:1011F000508B618B728B1F910F910C9479071F910B
:101200000F9108954F925F926F927F928F929F926B
:10121000AF92BF92CF92DF92EF92FF92CF93DF9384
:10122000EC016A017B018B8C9C8CAD8CBE8C9A018D
:10123000AB01C501B4010E944013882309F449C0E1
:101240006BA97CA98DA99EA90E94DF132B013C01EB
:10125000A7019601C501B4010E9444139B01AC0192
:10126000C301B2010E9493140E94AC136BAB7CAB20
:101270008DAB9EABA701960160E070E080E090E44A
:101280000E9444130E94FA1426E53EE04DE25FE31B
:101290000E94931420E034E244E759E40E9493143E
:1012A0006FAB78AF89AF9AAFCB8EDC8EED8EFE8EB2
:1012B000CE01DF91CF91FF90EF90DF90CF90BF9064
:1012C000AF909F908F907F906F905F904F900C9415
:1012D0007907DF91CF91FF90EF90DF90CF90BF9093
:1012E000AF909F908F907F906F905F904F900895F8
:1012F0008F929F92AF92BF92CF92EF920F93CF9324
:10130000DF93EC0186E294E0998388836A831B86ED
:101310001C861D861E861F86188A198A1A8A1B8AB1
:101320001C8A1D8A1E8A812C912C80E8A82E8FE3AE
:10133000B82E8F8A988EA98EBA8E1B8E1C8E1D8E0B
:101340001E8E8F8E98A2A9A2BAA21BA21CA21DA2B9
:101350001EA281E090E09CA78BA78FEF8EA71FA213
:1013600018A619A61AA64B832C830D83EE821BAAFE
:101370001CAA1DAA1EAA1FAA18AE19AE1AAE1BAE31
:101380001CAE1DAE1EAEFE01FF9680829182A2822F
:10139000B382349610821F82188619861A86CC2052
:1013A00019F0CE010E94BF0640E050E060E87FE304
:1013B000CE01DF91CF910F91EF90CF90BF90AF9082
:1013C0009F908F900C940209CF92DF92EF92FF9240
:1013D0000F931F93CF93DF93EC016A017B019A0176
:1013E000AB016F89788D898D9A8D0E944013882377
:1013F00009F446C0CF8AD88EE98EFA8E8E01015C40
:101400001F4FA701960160E074E284E799E40E940F
:101410004413F80160837183828393838BA99CA911
:10142000ADA9BEA9181619061A061B064CF56B893C
:101430007C898D899E899B01AC010E9493146B016C
:101440007C016B8D7C8D8D8D9E8D9B01AC010E94EE
:10145000DC129B01AC01C701B6010E9444130E943B
:10146000AC136BAB7CAB8DAB9EABCE01DF91CF9160
:101470001F910F91FF90EF90DF90CF900C94790720
:10148000DF91CF911F910F91FF90EF90DF90CF9060
:1014900008956F927F928F929F92AF92BF92CF9258
:1014A000DF92EF92FF920F931F93CF93DF93EC01A4
:1014B0003A018B012B893C894D895E89B301C801B2
:1014C0000E944013882309F454C0CF88D88CE98C3B
:1014D000FA8C46015701B7FAB094B7F8B094A50159
:1014E0009401B301C8010E94401387FD0BC0A701FE
:1014F0009601B301C8010E948F1418162CF436010E
:10150000870102C03401850120E030E0A901B30168
:10151000C8010E944013811105C01BA21CA21DA27C
:101520001EA221C09301A80160E074E284E799E45F
:101530000E9444139F770E94B1136BA37CA38DA3D9
:101540009EA37E0183E4E80EF11CDD24D39420E009
:1015500030E0A901B301C8010E948F1418160CF0E5
:10156000D12CF701D082C301D8018B8B9C8BAD8B22
:10157000BE8BDF91CF911F910F91FF90EF90DF9085
:10158000CF90BF90AF909F908F907F906F90089575
:101590000F931F93FC0107851089218932894385A8
:1015A000548565857685041715072607370779F072
:1015B000ED5BFF4F40175107620773071CF421E0F2
:1015C000208301C010821F910F910C94F20680E0DD
:1015D0001F910F910895589A599AE9EBF0E0808194
:1015E0008E7F808380818D7F808388E48093B800A4
:1015F00084E48093BC0008957093FC046093FB0422
:101600000895CF92DF92EF92FF920F931F930E9463
:10161000DB0C6B017C0184EA8093BC008091FB04AD
:101620009091FC042091BC0027FD1BC00097D1F3D2
:101630000E94DB0C6C197D098E099F094091FB0407
:101640005091FC048A0120E030E0601771078207A6
:10165000930720F31092BC0084E48093BC0081E0E7
:101660001CC08091B900887F883029F08091B90032
:10167000887F803111F480E010C08091B900887FAC
:10168000883341F48091B9001092BC0094E49093A7
:10169000BC0002C08091B900887F1F910F91FF901C
:1016A000EF90DF90CF900895CF92DF92EF92FF926C
:1016B0000F931F930E94DB0C6B017C0184E98093E4
:1016C000BC008091FB049091FC042091BC0024FF9D
:1016D0001BC00097D1F30E94DB0C6C197D098E09A9
:1016E0009F094091FB045091FC048A0120E030E006
:1016F000601771078207930720F31092BC0084E4FF
:101700008093BC0081E001C080E01F910F91FF90A9
:10171000EF90DF90CF900895CF92DF92EF92FF92FB
:101720000F931F93CF93DF93EC016093BB000E9454
:10173000DB0C6B017C0184E88093BC008091FB048E
:101740009091FC042091BC0027FD1BC00097D1F3B1
:101750000E94DB0C6C197D098E099F092091FB0406
:101760003091FC04890120E030E0601771078207A6
:10177000930720F31092BC0084E48093BC0081E0C6
:1017800024C08091B900887F883129F08091B90008
:10179000887F803411F480E018C01091B900187F60
:1017A0008091B900887F803229F08091B900887FCC
:1017B000883429F4CE010E94540B812F06C0109268
:1017C000BC0084E48093BC00F8CFDF91CF911F91DF
:1017D0000F91FF90EF90DF90CF900895CF92DF921E
:1017E000EF92FF920F931F93CF93DF93EC016093DF
:1017F000BB000E94DB0C6B017C0184E88093BC0081
:101800008091FB049091FC042091BC0027FD1BC03B
:101810000097D1F30E94DB0C6C197D098E099F099A
:101820002091FB043091FC04890120E030E0601736
:1018300071078207930720F31092BC0084E4809321
:10184000BC0081E019C08091B900887F883299F08E
:101850001091B900187F8091B900887F803321F4FE
:10186000CE010E94540B05C01092BC0084E480930A
:10187000BC00812F01C080E0DF91CF911F910F91BB
:10188000FF90EF90DF90CF900895EF92FF920F932B
:101890001F93CF93DF931F92CDB7DEB77C01042F48
:1018A000122FFC01108269830E94010BF7018083D3
:1018B000698181112CC0660FC7010E948C0BF70152
:1018C0008083882321F0813011F582E020C0602FD1
:1018D000C7010E94EE0BF7018083882321F081303D
:1018E000B1F483E014C0612FC7010E94EE0BF70131
:1018F00080838111F4CFC7010E94540BF7018083CC
:10190000882321F0813019F487E001C080E00F9036
:10191000DF91CF911F910F91FF90EF9008950C945C
:10192000450C1F920F920FB60F9211242F933F93E5
:101930008F939F93AF93BF938091FE049091FF0488
:10194000A0910005B09101053091FD0423E0230F23
:101950002D3720F40196A11DB11D05C026E8230FE7
:101960000296A11DB11D2093FD048093FE04909367
:10197000FF04A0930005B0930105809102059091AA
:101980000305A0910405B09105050196A11DB11DA7
:101990008093020590930305A0930405B093050579
:1019A000BF91AF919F918F913F912F910F900FBE5B
:1019B0000F901F9018952FB7F8946091FE047091C6
:1019C000FF0480910005909101052FBF08953FB756
:1019D000F8948091020590910305A0910405B091BF
:1019E000050526B5A89B05C02F3F19F00196A11D3E
:1019F000B11D3FBF6627782F892F9A2F620F711D67
:101A0000811D911D42E0660F771F881F991F4A951F
:101A1000D1F70895CF92DF92EF92FF92CF93DF93A9
:101A20006B017C010E94E70CEB01C114D104E104BD
:101A3000F10489F00E94DA120E94E70C6C1B7D0B06
:101A4000683E734090F381E0C81AD108E108F108BC
:101A5000C851DC4FEACFDF91CF91FF90EF90DF903C
:101A6000CF9008958230910538F0880F991F880F24
:101A7000991F05970197F1F70895789484B58260CE
:101A800084BD84B5816084BD85B5826085BD85B522
:101A9000816085BDEEE6F0E0808181608083E1E8D1
:101AA000F0E0108280818260808380818160808309
:101AB000E0E8F0E0808181608083E1EBF0E080810C
:101AC00084608083E0EBF0E0808181608083E1E9E5
:101AD000F0E0808182608083808181608083E0E9A2
:101AE000F0E0808181608083E1EAF0E080818260C3
:101AF0008083808181608083E0EAF0E08081816082
:101B00008083E1E2F1E08081826080838081816076
:101B10008083E0E2F1E0808181608083EAE7F0E0A9
:101B20008081846080838081826080838081816005
:101B300080838081806880831092C100089590E046
:101B4000FC013197E231F10508F04CC0EE57FF4F30
:101B50000C948E15809180008F7703C08091800057
:101B60008F7D80938000089580918000877FF9CFDA
:101B700084B58F7702C084B58F7D84BD0895809130
:101B8000B0008F7703C08091B0008F7D8093B0004C
:101B90000895809190008F7707C0809190008F7D8D
:101BA00003C080919000877F80939000089580917A
:101BB000A0008F7707C08091A0008F7D03C0809127
:101BC000A000877F8093A0000895809120018F77E7
:101BD00007C0809120018F7D03C080912001877F05
:101BE000809320010895CF93DF9390E0FC01E65BA2
:101BF000FD4F2491FC01E057FD4F8491882349F16A
:101C000090E0880F991FFC01E65FFC4FA591B4910D
:101C100080519D4FFC01C591D4919FB7611108C0BF
:101C2000F8948C91209582238C93888182230AC01A
:101C3000623051F4F8948C91322F309583238C9339
:101C40008881822B888304C0F8948C91822B8C939A
:101C50009FBFDF91CF9108950F931F93CF93DF9391
:101C60001F92CDB7DEB7282F30E0F901EC5FFD4FB2
:101C70008491F901E65BFD4F1491F901E057FD4FA6
:101C800004910023C9F0882321F069830E949F0DED
:101C90006981E02FF0E0EE0FFF1FE051FD4FA591AD
:101CA000B4919FB7F8948C91611103C01095812372
:101CB00001C0812B8C939FBF0F90DF91CF911F911B
:101CC0000F910895CF93DF93282F30E0F901EC5F57
:101CD000FD4F8491F901E65BFD4FD491F901E05786
:101CE000FD4FC491CC2391F081110E949F0DEC2FE8
:101CF000F0E0EE0FFF1FEA52FD4FA591B4912C9139
:101D00002D2381E090E021F480E002C080E090E0AB
:101D1000DF91CF910895FC01818D228D90E0805C50
:101D20009F4F821B91098F7399270895FC01918D14
:101D3000828D981731F0828DE80FF11D858D90E02E
:101D400008958FEF9FEF0895FC01918D828D981774
:101D500061F0828DDF01A80FB11D5D968C91928D8F
:101D60009F5F9F73928F90E008958FEF9FEF08958C
:101D70008FE590E1892B41F080E090E0892B21F004
:101D80000E945F10811125C08CE091E1892B41F008
:101D900080E090E0892B21F00E940C1181111CC081
:101DA00080E090E0892B41F080E090E0892B21F0E9
:101DB0000E940000811113C080E090E0892BA1F007
:101DC00080E090E0892B81F00E94000081110AC020
:101DD00008950E940000D8CF0E940000E1CF0E9429
:101DE0000000EACF0C9400000895FC01848DDF010F
:101DF000A80FB11DA35ABF4F2C91848D90E001967E
:101E00008F739927848FA689B7892C93A089B1896C
:101E10008C9180648C93938D848D981306C0028876
:101E2000F389E02D80818F7D80830895CF93DF93A8
:101E3000EC01888D8823C9F0EA89FB89808185FDC2
:101E400005C0A889B9898C9186FD0FC00FB607FC23
:101E5000F5CF808185FFF2CFA889B9898C9185FF64
:101E6000EDCFCE010E94F50EE7CFDF91CF9108951F
:101E7000CF92DF92FF920F931F93CF93DF931F9226
:101E8000CDB7DEB76C0181E0D60158968C93589798
:101E90005B969C915B975C968C915C97981307C0BE
:101EA0005096ED91FC915197808185FD2EC0F601F1
:101EB000038D10E00F5F1F4F0F731127F02EF601F7
:101EC000848DF81211C00FB607FCF9CFD6015096D9
:101ED000ED91FC915197808185FFF1CFC601698317
:101EE0000E94F50E6981EBCF838DE80FF11DE35A57
:101EF000FF4F6083D6015B960C935B975296ED91F2
:101F0000FC915397808180620CC0D6015696ED916A
:101F1000FC91579760835096ED91FC915197808189
:101F20008064808381E090E00F90DF91CF911F91DA
:101F30000F91FF90DF90CF900895BF92CF92DF92E4
:101F4000EF92FF92CF93DF93EC016A017B01B22EF7
:101F5000E889F98982E08083411581EE580761059F
:101F60007105A1F060E079E08DE390E0A7019601B2
:101F70000E944D1521503109410951095695479547
:101F800037952795211580E1380798F0E889F98978
:101F9000108260E874E88EE190E0A70196010E944B
:101FA0004D152150310941095109569547953795ED
:101FB0002795EC85FD853083EE85FF852083188E7F
:101FC000EC89FD89B082EA89FB8980818061808308
:101FD000EA89FB89808188608083EA89FB89808126
:101FE00080688083EA89FB8980818F7D8083DF918F
:101FF000CF91FF90EF90DF90CF90BF9008951F9208
:102000000F920FB60F9211240BB60F922F938F934E
:102010009F93EF93FF93E0911605F0911705808150
:10202000E0911C05F0911D0582FD12C09081809108
:102030001F058F5F8F7320912005821751F0E0916B
:102040001F05F0E0EA5FFA4F958F80931F0501C0EE
:102050008081FF91EF919F918F912F910F900BBEF7
:102060000F900FBE0F901F9018951F920F920FB6F2
:102070000F9211240BB60F922F933F934F935F93C0
:102080006F937F938F939F93AF93BF93EF93FF9340
:1020900086E095E00E94F50EFF91EF91BF91AF9120
:1020A0009F918F917F916F915F914F913F912F9170
:1020B0000F900BBE0F900FBE0F901F90189586E0EB
:1020C00095E00E948B0E21E0892B09F420E0822FFD
:1020D0000895109209051092080588EE93E0A0E09B
:1020E000B0E080930A0590930B05A0930C05B09384
:1020F0000D0580E494E0909307058093060585EC38
:1021000090E0909313058093120584EC90E09093F7
:1021100015058093140580EC90E09093170580934B
:10212000160581EC90E0909319058093180582ECD8
:1021300090E090931B0580931A0586EC90E09093B5
:102140001D0580931C0510921F051092200510920A
:1021500021051092220508951F920F920FB60F923B
:1021600011240BB60F922F938F939F93EF93FF93AE
:10217000E091B305F091B4058081E091B905F0914B
:10218000BA0582FD12C090818091BC058F5F8F736C
:102190002091BD05821751F0E091BC05F0E0ED55AE
:1021A000FA4F958F8093BC0501C08081FF91EF911C
:1021B0009F918F912F910F900BBE0F900FBE0F909C
:1021C0001F9018951F920F920FB60F9211240BB605
:1021D0000F922F933F934F935F936F937F938F93C0
:1021E0009F93AF93BF93EF93FF9383EA95E00E9491
:1021F000F50EFF91EF91BF91AF919F918F917F91DC
:102200006F915F914F913F912F910F900BBE0F9067
:102210000FBE0F901F90189583EA95E00E948B0ED9
:1022200021E0892B09F420E0822F08951092A60561
:102230001092A50588EE93E0A0E0B0E08093A7059A
:102240009093A805A093A905B093AA0580E494E013
:102250009093A4058093A3058DEC90E09093B00536
:102260008093AF058CEC90E09093B2058093B1051C
:1022700088EC90E09093B4058093B30589EC90E0EE
:102280009093B6058093B5058AEC90E09093B805DD
:102290008093B7058EEC90E09093BA058093B905D2
:1022A0001092BC051092BD051092BE051092BF059C
:1022B000089508950E943D0D0E9459110E94C80181
:1022C000C8EBDEE00E9470022097E1F30E94B80E96
:1022D000F9CFCF92DF92EF92FF920F931F93CF939C
:1022E000DF937C016A01EB0100E010E00C151D0595
:1022F00071F06991D701ED91FC910190F081E02D91
:10230000C7011995892B19F00F5F1F4FEFCFC80137
:10231000DF91CF911F910F91FF90EF90DF90CF90C1
:1023200008956115710581F0DB010D900020E9F73A
:10233000AD0141505109461B570BDC01ED91FC9159
:102340000280F381E02D199480E090E008950C94D0
:102350009111DC01ED91FC910190F081E02D199437
:102360006CE474E00C9491110F931F93CF93DF935F
:10237000EC010E9491118C01CE010E94B011800FDE
:10238000911FDF91CF911F910F9108958F929F928E
:10239000AF92BF92CF92DF92EF92FF920F931F9373
:1023A000CF93DF93CDB7DEB7A1970FB6F894DEBF1A
:1023B0000FBECDBF7C01C42EE52FCB01D22E19A2BA
:1023C00021E02D1510F02AE0D22E8E010F5D1F4F57
:1023D0008D2C912CA12CB12C6C2D7E2FA50194015C
:1023E0000E944D158C2DD29E801911240150110987
:1023F0008A3014F4805D01C0895CF8018083211566
:1024000031054105510521F0C22EE32FCA01E4CF69
:10241000B801C7010E949111A1960FB6F894DEBFD2
:102420000FBECDBFDF91CF911F910F91FF90EF9025
:10243000DF90CF90BF90AF909F908F900895CF92F4
:10244000DF92EF92FF920F931F93CF93DF93EC01F4
:102450006A017B012115310579F4E881F981019048
:10246000F081E02D642FDF91CF911F910F91FF90AC
:10247000EF90DF90CF9019942A303105E9F477FF7F
:102480001AC06DE20E94A9118C0144275527BA0198
:102490004C195D096E097F092AE0CE010E94C61120
:1024A000800F911FDF91CF911F910F91FF90EF90BF
:1024B000DF90CF9008952AE0B701A601CE01DF9109
:1024C000CF911F910F91FF90EF90DF90CF900C94E0
:1024D000C6119A01AB01662757FD6095762F0C94C3
:1024E0001F120F931F93CF93DF93EC019A01AB015F
:1024F000662757FD6095762F0E941F128C01CE0132
:102500000E94B011800F911FDF91CF911F910F9109
:1025100008950F931F93CF93DF93EC010E94DB0C80
:10252000688779878A879B87E881F9810680F781A8
:10253000E02DCE01199597FF15C00E94DB0C088590
:1025400019852A853B85601B710B820B930B0C81CF
:102550001D812E813F81601771078207930720F349
:102560008FEF9FEFDF91CF911F910F910895CF9241
:10257000DF92EF92FF920F931F93CF93DF937C0133
:102580006A01EB0100E010E00C151D0549F0C701E0
:102590000E94891297FD04C089930F5F1F4FF4CFEB
:1025A000C801DF91CF911F910F91FF90EF90DF90C5
:1025B000CF90089508955058BB27AA270ED075C113
:1025C00066D130F06BD120F031F49F3F11F41EF44E
:1025D0005BC10EF4E095E7FB51C1E92F77D180F3A1
:1025E000BA17620773078407950718F071F49EF510
:1025F0008FC10EF4E0950B2EBA2FA02D0B01B9015F
:1026000090010C01CA01A0011124FF27591B99F068
:10261000593F50F4503E68F11A16F040A22F232F74
:10262000342F4427585FF3CF469537952795A795C4
:10263000F0405395C9F77EF41F16BA0B620B730B6B
:10264000840BBAF09150A1F0FF0FBB1F661F771FDC
:10265000881FC2F70EC0BA0F621F731F841F48F491
:10266000879577956795B795F7959E3F08F0B3CF17
:102670009395880F08F09927EE0F97958795089501
:10268000D9D008F481E008950CD00FC107D140F0F3
:10269000FED030F021F45F3F19F0F0C0511139C184
:1026A000F3C014D198F39923C9F35523B1F3951BC3
:1026B000550BBB27AA2762177307840738F09F5F63
:1026C0005F4F220F331F441FAA1FA9F333D00E2ED2
:1026D0003AF0E0E830D091505040E695001CCAF73F
:1026E00029D0FE2F27D0660F771F881FBB1F261704
:1026F00037074807AB07B0E809F0BB0B802DBF01D7
:10270000FF2793585F4F2AF09E3F510568F0B6C0EF
:1027100000C15F3FECF3983EDCF3869577956795B3
:10272000B795F7959F5FC9F7880F911D9695879587
:1027300097F90895E1E0660F771F881FBB1F6217A6
:1027400073078407BA0720F0621B730B840BBA0B64
:10275000EE1F88F7E095089504D06894B111D9C0B0
:102760000895BCD088F09F5790F0B92F9927B751A2
:10277000A0F0D1F0660F771F881F991F1AF0BA9545
:10278000C9F712C0B13081F0C3D0B1E00895C0C024
:10279000672F782F8827B85F39F0B93FCCF386953B
:1027A00077956795B395D9F73EF490958095709598
:1027B00061957F4F8F4F9F4F0895E89409C097FB15
:1027C0003EF490958095709561957F4F8F4F9F4F08
:1027D0009923A9F0F92F96E9BB279395F69587954C
:1027E00077956795B795F111F8CFFAF4BB0F11F40F
:1027F00060FF1BC06F5F7F4F8F4F9F4F16C08823B6
:1028000011F096E911C0772321F09EE8872F762FEB
:1028100005C0662371F096E8862F70E060E02AF02C
:102820009A95660F771F881FDAF7880F9695879518
:1028300097F90895990F0008550FAA0BE0E8FEEFED
:1028400016161706E807F907C0F012161306E40774
:10285000F50798F0621B730B840B950B39F40A266D
:1028600061F0232B242B252B21F408950A2609F44B
:10287000A140A6958FEF811D811D089597F99F674F
:1028800080E870E060E008959FEF80EC08950024F8
:102890000A941616170618060906089500240A94C5
:1028A00012161306140605060895092E0394000C4B
:1028B00011F4882352F0BB0F40F4BF2B11F460FFDA
:1028C00004C06F5F7F4F8F4F9F4F089557FD905803
:1028D000440F551F59F05F3F71F04795880F97FBE4
:1028E000991F61F09F3F79F087950895121613069E
:1028F0001406551FF2CF4695F1DF08C016161706CD
:102900001806991FF1CF8695710561050894089501
:10291000E894BB2766277727CB0197F908958ADFCC
:1029200008F48FEF08950BD0C0CFB1DF28F0B6DFE9
:1029300018F0952309F0A2CFA7CF1124EACFC6DF64
:10294000A0F3959FD1F3950F50E0551F629FF001C2
:10295000729FBB27F00DB11D639FAA27F00DB11D1B
:10296000AA1F649F6627B00DA11D661F829F2227A4
:10297000B00DA11D621F739FB00DA11D621F839F2B
:10298000A00D611D221F749F3327A00D611D231F01
:10299000849F600D211D822F762F6A2F11249F574F
:1029A00050408AF0E1F088234AF0EE0FFF1FBB1F72
:1029B000661F771F881F91505040A9F79E3F510511
:1029C00070F05CCFA6CF5F3FECF3983EDCF38695CA
:1029D00077956795B795F795E7959F5FC1F7FE2BBC
:1029E000880F911D9695879597F9089511F40EF427
:1029F0004BCF3EC073DFD0F39923D9F3CEF39F576B
:102A0000550B87FF43D00024A0E640EA9001805890
:102A10005695979528F4805C660F771F881F20F0E5
:102A200026173707480730F4621B730B840B2029E5
:102A300031294A2BA69517940794202531254A273A
:102A400058F7660F771F881F20F0261737074807AB
:102A500030F4620B730B840B200D311D411DA095CA
:102A600081F7B901842F9158880F9695879508951D
:102A70009F3F31F0915020F4879577956795B795F2
:102A8000880F911D9695879597F90895915050401C
:102A9000660F771F881FD2F70895A1E21A2EAA1B8E
:102AA000BB1BFD010DC0AA1FBB1FEE1FFF1FA217FE
:102AB000B307E407F50720F0A21BB30BE40BF50BFB
:102AC000661F771F881F991F1A9469F76095709584
:102AD000809590959B01AC01BD01CF010895052E15
:102AE00097FB1EF400940E94861557FD07D00E94A4
:102AF0004D1507FC03D04EF40C9486155095409567
:102B0000309521953F4F4F4F5F4F08959095809599
:102B1000709561957F4F8F4F9F4F0895EE0FFF1F68
:102B20000590F491E02D19940790F691E02D1994F9
:102B3000FC0188279927E89421912032E9F3293074
:102B400010F02E30C8F32B3241F02D3239F4689456
:102B500004C00E94E115820F911D219120532A305B
:102B6000C0F31EF4909581959F4F08954EE554E073
:102B70000C94BA15FA01A191B081009719F410973D
:102B8000E1F0CD01DC01CD010D90002011F4C00178
:102B900013C0FB012191222319F02015D9F7F3CF9F
:102BA000FB012191201519F41E92119606C02223D3
:102BB000C1F70D900020A1F7D001FA01A193B083D5
:102BC00008957AE0979F902D879F802D910D112475
:062BD0000895F894FFCF08
:102BD600000040068000627574746F6E2070726526
:102BE6007373656400646174612073656E74006458
:102BF600656C617920737461727465640031323377
:102C06003A312C3432353A322C3535323A332C328D
:102C160033343A342C3233343A352C3231333A3673
:102C26002C3231333A372C3234333A382C31323570
:102C36003A390A002C3B002D2D2D2D2D2D2D2D2D15
:102C46002D2D2D2D2D2D2D2D2D2D2D2D2D2D2D2DAE
:102C56002D2D2D2D2D2D2D2D2D2D2D2D2D2D2D2D9E
:102C66002D2D2D2D2D2D2D2D2D2D2D2D2D2D2D00BB
:102C7600496E737472756374696F6E2061766169EB
:102C86006C61626C65207265616420697420696E8E
:102C9600746F2062756666657200696E737472750C
:102CA6006374696F6E2062797465733A20002C2014
:102CB6006D6573736167653A20002C2062797465CF
:102CC6007320726561643A2000436865636B696EC0
:102CD6006720666F72206D69736D61746368206228
:102CE60065747765656E20627974657320726561B7
:102CF600642026206279746573207265636569763F
:102D06006564004E6F206572726F72206F63637523
:102D16007265642C20706172736520696E737472BB
:102D2600756374696F6E202620617474656D7074A6
:102D360020657865637574696F6E00636865636B9B
:102D460020746F2073656520696620616E20657248
:102D5600726F72206F636375726564206475726941
:102D66006E6720766572696669636174696F6E0065
:102D76004572726F72206F6363757265642C20737F
:102D8600656E64206572726F72206D65737361671C
:102D96006500494E535F45523B004E6F2065727287
:102DA6006F72206F6363757265642C2073656E6441
:102DB600206F6B6179206D65737361676500494E9D
:102DC600535F4F4B3B00426567696E207A65726FB1
:102DD600537465707065724D6F746F7200456E64E2
:102DE600207A65726F537465707065724D6F746F7B
:102DF600720000000000A606BF069C05CD041A0658
:102E0600E00530065106850611056705000000003D
:102E1600380F69118B0EA40E960E160F0D0A006E52
:0E2E2600616E00696E66006F7666002E000019
:00000001FF
